:100000000C943D000C94BF020C94BF020C9424018C
:100010000C94BF020C94BF020C94BF020C94BA0063
:100020000C94BF020C94BF020C94BF020C944A01C2
:100030000C94BF020C94BF020C94BF020C94BF023C
:100040000C94BF020C94BF020C94BF020C94BF022C
:100050000C94BF020C94BF020C94BF020C94BF021C
:100060000C94BF020C94BF0201000108800108013A
:100070000A00058C010A010F800011241FBECFEF7A
:10008000D8E0DEBFCDBFE8E6F0E040E017C0B591B4
:10009000A59135912591059107FD0CC0959185910C
:1000A000EF01F92FE82F05900D92A217B307D9F7AA
:1000B000FE0104C01D92A217B307E1F7E937F40768
:0E00C00031F70E94B7020C948902F894FFCF2A
:1000CE00436F6D6563616E646F00626C7565746F0E
:0D00DE006F746820696E69636961646F006A
:1000EC000F931F93CF93DF930E9479020E943D02DE
:1000FC0000E010E001C08E01E80121966AE070E09A
:10010C000E945102F801E050FF4F805D8083862FE2
:10011C00972F181619067CF3FE01E050FF4F108242
:10012C0080E090E00DC0DC01A050BF4F2C91F80195
:10013C00E81BF90BE050FF4F30813C932083019674
:10014C009E01DD2314F42F5F3F4F359527958217C1
:10015C0093074CF360E071E080E80E94F101DF91BD
:08016C00CF911F910F9108953E
:100174001F920F920FB60F9211248F939F93EF93B8
:10018400FF9380910A01882329F010920A011092AA
:10019400B20020C093B180910C01869580930C012C
:1001A40091FF05C080910C01806880930C018091BF
:1001B4000D018F5F80930D0180910D01883050F007
:1001C40010920E0181E080930B01E0E7F0E0808162
:1001D4008D7F8083FF91EF919F918F910F900FBE40
:0601E4000F901F9018951A
:1001EA00DC01CB01880F991FAA1FBB1F880F991F1B
:1001FA00AA1FBB1F9C01AD01220F331F441F551FAD
:10020A00220F331F441F551F60E074E284EF90E011
:10021A000E949101BA01A90141505109610971096C
:10022A00BB27A72F962F852F8093C5004093C40024
:0E023A0088E18093C10086E08093C2000895A1
:100248001F920F920FB60F9211248F93EF93FF9383
:1002580080910E01811112C0199910C081E080931C
:100268000E0110920D0110920C0180930A01109258
:10027800B200E0E7F0E0808182608083FF91EF9137
:0C0288008F910F900FBE0F901F901895E3
:100294001F920F920FB60F9211242F933F934F93F7
:1002A4005F936F937F938F939F93AF93BF93EF93DA
:1002B400FF930E94B301FF91EF91BF91AF919F9182
:1002C4008F917F916F915F914F913F912F910F90FB
:0802D4000FBE0F901F9018955A
:1002DC0080910801909109018230910561F0833081
:1002EC00910519F0019791F40CC088B18E7F88B9F3
:1002FC008FEF87BD089588B1816088B98EE187BD85
:10030C00089588B1816088B917BC089588B18E7F33
:06031C0088B917BC08952A
:10032200A1E21A2EAA1BBB1BFD010DC0AA1FBB1FF7
:10033200EE1FFF1FA217B307E407F50720F0A21B69
:10034200B30BE40BF50B661F771F881F991F1A94D6
:1003520069F760957095809590959B01AC01BD0100
:04036200CF0108952A
:1003660081E090E02091060130910701232B11F0E6
:1003760080E090E09093070180930601892B59F065
:1003860080910801909109011816190624F48BB181
:0E03960080688BB908958BB18F778BB908956D
:1003A400F89460E875E280E090E00E94F5006EEC5D
:1003B40070E080E00E94F1010E940D0268ED70E09F
:1003C40080E00E94F1010E9494020E9428020E948F
:0E03D400AC020E94A5020E946E01789408956A
:1003E200CF92DF92EF926B01E82E06C09FEFC91AFF
:1003F200D90AE90A0E949E02F6018491E7FC8081F3
:100402008111F4CF8DE00E949E028AE00E949E023A
:08041200EF90DF90CF900895F8
:10041A0084B18D7F84B985B1826085B9E8E6F0E060
:10042A00808181608083EBE6F0E080818260808356
:10043A0082E08093B0008093B10080ED8093B30096
:06044A00109270000895FD
:1004500010928000E1E8F0E088E080838081856090
:10046000808388E09DE39093890080938800EFE685
:0A047000F0E080818260808308952F
:10047A00ECE7F0E08081807F81608083EAE7F0E04A
:10048A0080818064808380917A0086FDFCCF809190
:08049A007800909179000895AB
:1004A20097FB072E16F4009407D077FD09D00E941F
:1004B200650207FC05D03EF4909581959F4F089503
:0804C200709561957F4F0895CC
:1004CA00AA1BBB1B51E107C0AA1FBB1FA617B70770
:1004DA0010F0A61BB70B881F991F5A95A9F780958C
:0804EA009095BC01CD010895BD
:1004F2000E94BC02882341F00E94B2028D3031F08A
:100502008A3029F480E0089580E0089580E008951B
:10051200EC010E94C4020E94C302CE010E94C502E5
:06052200CE010E94C1029F
:100528008AB180688AB987B1816087B98AB18064E5
:040538008AB90895DF
:0E053C009091C00095FFFCCF8093C6000895FB
:0E054A0080E480937C0087E880937A00089517
:0C05580083E884BD81E085BD17BC0895D8
:0A05640010920B0180910C01089524
:0A056E000E94D2010E947600FDCF2A
:0605780080910B010895C3
:04057E000C940000D9
:040582000E9465006E
:020586000895D6
:020588000895D4
:02058A000895D2
:02058C0003006A
:00000001FF
