:100000000C9437000C94C2010C94C2010C94E800CB
:100010000C94C2010C94C2010C94C2010C947E0099
:100020000C94C2010C94C2010C94C2010C94C20144
:100030000C94C2010C94C2010C94C2010C94C20134
:100040000C94C2010C94C2010C94C2010C94C20124
:100050000C94C2010C94C2010C94C2010C94C20114
:100060000C94C2010C94C20101000105800011240E
:100070001FBECFEFD8E0DEBFCDBFE8E6F0E040E046
:1000800017C0B591A59135912591059107FD0CC03B
:1000900095918591EF01F92FE82F05900D92A21708
:1000A000B307D9F7FE0104C01D92A217B307E1F709
:1000B000ED36F40731F70E94BA010C94A301F894CD
:0200C000FFCF70
:1000C200436F6D6563616E646F00626C7565746F1A
:1000D2006F746820696E69636961646F00425420BD
:1000E200726563656265753A00696775616C206166
:0A00F200206D657520676F617400D2
:1000FC001F920F920FB60F9211248F939F93EF9331
:10010C00FF9380910001882329F010920001109236
:10011C00B20020C093B180910201869580930201B8
:10012C0091FF05C08091020180688093020180914B
:10013C0003018F5F8093030180910301883050F09D
:10014C001092040181E080930101E0E7F0E08081EE
:10015C008D7F8083FF91EF919F918F910F900FBEB8
:06016C000F901F90189592
:10017200DC01CB01880F991FAA1FBB1F880F991F93
:10018200AA1FBB1F9C01AD01220F331F441F551F25
:10019200220F331F441F551F60E074E284EF90E08A
:1001A2000E940E01BA01A901415051096109710968
:1001B200BB27A72F962F852F8093C5004093C4009D
:0E01C20088E18093C10086E08093C20008951A
:1001D0001F920F920FB60F9211248F93EF93FF93FC
:1001E00080910401811112C0199910C081E080939F
:1001F00004011092030110920201809300011092F9
:10020000B200E0E7F0E0808182608083FF91EF91AF
:0C0210008F910F900FBE0F901F9018955B
:10021C00A1E21A2EAA1BBB1BFD010DC0AA1FBB1FFE
:10022C00EE1FFF1FA217B307E407F50720F0A21B70
:10023C00B30BE40BF50B661F771F881F991F1A94DD
:10024C0069F760957095809590959B01AC01BD0107
:04025C00CF01089531
:10026000CF92DF92EF926B01E82E06C09FEFC91A82
:10027000D90AE90A0E94AE01F6018491E7FC808167
:100280008111F4CF8DE00E94AE018AE00E94AE01A0
:08029000EF90DF90CF9008957C
:1002980084B18D7F84B985B1826085B9E8E6F0E0E4
:1002A800808181608083EBE6F0E0808182608083DA
:1002B80082E08093B0008093B10080ED8093B3001A
:0602C80010927000089581
:1002CE00CF930E949301C82F882379F06FED70E0D1
:1002DE0080E00E9430018C2F0E94AE01C13629F4BD
:0E02EE006BEE70E080E00E943001CF91089529
:1002FC00F89460E875E280E090E00E94B90062EC4E
:10030C0070E080E00E9430010E944C016CEC70E0C7
:0A031C0080E00E94300178940895FB
:100326000E94BF01882341F00E94B5018D3031F053
:100336008A3029F480E0089580E0089580E00895E9
:10034600EC010E94C7010E94C601CE010E94C801AD
:06035600CE010E94C4016B
:0E035C009091C00095FFFCCF8093C6000895DD
:0A036A001092010180910201089534
:0A0374000E947E010E946701FDCF88
:06037E00809101010895C9
:040384000C940000D5
:040388000E945F0070
:02038C000895D2
:02038E000895D0
:020390000895CE
:00000001FF
