:100000000C943D000C9457020C9457020C94EE0093
:100010000C9457020C9457020C9457020C948400D1
:100020000C9457020C9457020C9457020C94140130
:100030000C9457020C9457020C9457020C945702DC
:100040000C9457020C9457020C9457020C945702CC
:100050000C9457020C9457020C9457020C945702BC
:100060000C9457020C945702010001028001020116
:10007000040004BC01040109800011241FBECFEF5D
:10008000D8E0DEBFCDBFE8E6F0E040E017C0B591B4
:10009000A59135912591059107FD0CC0959185910C
:1000A000EF01F92FE82F05900D92A217B307D9F7AA
:1000B000FE0104C01D92A217B307E1F7E937F40768
:0E00C00031F70E944F020C942802F894FFCFF3
:1000CE00436F6D6563616E646F00626C7565746F0E
:1000DE006F746820696E69636961646F00425420B1
:1000EE00726563656265753A00696775616C20615A
:0A00FE00206D657520676F617400C6
:100108001F920F920FB60F9211248F939F93EF9324
:10011800FF9380910401882329F010920401109222
:10012800B20020C093B180910601869580930601A4
:1001380091FF05C080910601806880930601809137
:1001480007018F5F8093070180910701883050F085
:100158001092080181E080930501E0E7F0E08081DA
:100168008D7F8083FF91EF919F918F910F900FBEAC
:060178000F901F90189586
:10017E00DC01CB01880F991FAA1FBB1F880F991F87
:10018E00AA1FBB1F9C01AD01220F331F441F551F19
:10019E00220F331F441F551F60E074E284EF90E07E
:1001AE000E945B01BA01A90141505109610971090F
:1001BE00BB27A72F962F852F8093C5004093C40091
:0E01CE0088E18093C10086E08093C20008950E
:1001DC001F920F920FB60F9211248F93EF93FF93F0
:1001EC0080910801811112C0199910C081E080938F
:1001FC0008011092070110920601809304011092DD
:10020C00B200E0E7F0E0808182608083FF91EF91A3
:0C021C008F910F900FBE0F901F9018954F
:100228001F920F920FB60F9211242F933F934F9363
:100238005F936F937F938F939F93AF93BF93EF9346
:10024800FF930E94EB01FF91EF91BF91AF919F91B6
:100258008F917F916F915F914F913F912F910F9067
:080268000FBE0F901F901895C6
:1002700080910201909103018230910561F08330F9
:10028000910519F0019791F40CC088B18E7F88B95F
:100290008FEF87BD089588B1816088B98EE187BDF1
:1002A000089588B1816088B917BC089588B18E7FA0
:0602B00088B917BC089597
:1002B600A1E21A2EAA1BBB1BFD010DC0AA1FBB1F64
:1002C600EE1FFF1FA217B307E407F50720F0A21BD6
:1002D600B30BE40BF50B661F771F881F991F1A9443
:1002E60069F760957095809590959B01AC01BD016D
:0402F600CF01089597
:1002FA00F89460E875E280E090E00E94BF006EEC3E
:10030A0070E080E00E949A010E94B60168ED70E0F8
:10031A0080E00E949A010E9433020E9403020E9416
:0A032A0044020E94380178940895FF
:10033400CF92DF92EF926B01E82E06C09FEFC91AAD
:10034400D90AE90A0E943D02F6018491E7FC808102
:100354008111F4CF8DE00E943D028AE00E943D02AB
:08036400EF90DF90CF900895A7
:10036C0084B18D7F84B985B1826085B9E8E6F0E00F
:10037C00808181608083EBE6F0E080818260808305
:10038C0082E08093B0008093B10080ED8093B30045
:06039C00109270000895AC
:1003A200CF930E941802C82F882391F06BEE70E061
:1003B20080E00E949A016C2F70E080E090E00E9441
:1003C2009A01C13629F467EF70E080E00E949A0139
:0403D200CF9108952A
:1003D60081E090E02091000130910101232B11F082
:1003E60080E090E09093010180930001892B21F039
:1003F6008BB180688BB908958BB18F778BB90895CF
:1004060010928000E1E8F0E088E0808380818560DA
:10041600808388E09DE39093890080938800EFE6CF
:0A042600F0E0808182608083089579
:100430000E945402882341F00E944A028D3031F01C
:100440008A3029F480E0089580E0089580E00895DE
:10045000EC010E945C020E945B02CE010E945D02E0
:06046000CE010E945902CA
:100466008AB180688AB987B1816087B98AB18064A8
:040476008AB90895A2
:0E047A009091C00095FFFCCF8093C6000895BE
:0C04880083E884BD81E085BD17BC0895A9
:0A0494001092050180910601089501
:0A049E000E947D010E94D101FDCFF4
:0604A8008091050108959A
:0404AE000C940000AA
:0404B2000E9465003F
:0204B6000895A7
:0204B8000895A5
:0204BA000895A3
:0204BC0003003B
:00000001FF
