:100000000C9466000C94DA030C94DA030C949801B7
:100010000C94DA030C94DA030C94DA030C942E019A
:100020000C94DA030C94DA030C94DA030C94E301D5
:100030000C94DA030C94DA030C94DA030C94DA03CC
:100040000C94DA030C94DA030C94DA030C94DA03BC
:100050000C94DA030C94DA030C94DA030C94DA03AC
:100060000C94DA030C94DA031A0128012801280100
:100070001701280126012801260128012001280155
:1000800028012801280128011D0123012801280138
:100090002801280128012801280128012801280118
:1000A0002801280128012801280128012801280108
:1000B00028012801260128012601010001048001F0
:1000C0000401060007B80106010B800011241FBEC1
:1000D000CFEFD8E0DEBFCDBFEAEBF0E040E017C0E5
:1000E000B591A59135912591059107FD0CC095918C
:1000F0008591EF01F92FE82F05900D92A217B30714
:10010000D9F7FE0104C01D92A217B307E1F7EB3C3B
:10011000F40731F70E94D2030C948E00F894FFCFBD
:10012000696E646F20707261206672656E7465001E
:10013000696E646F20707261207472617300696E01
:10014000646F207072612064697265697400696E01
:10015000646F2070726120657371756572646100EF
:10016000706172616E646F00766972616E646F2097
:1001700031383000436F6D6563616E646F00626C8F
:100180007565746F6F746820696E69636961646F07
:0D01900000425420726563656265753A0097
:10019E00CF92DF92EF92FF92CF930E949A03C82FD5
:1001AE000E9473038132934084F0809100019091FC
:1001BE000101892B51F480910401909105011816CB
:1001CE0019061CF40E946F023CC0C93519F40E9436
:1001DE00AA0337C0CC23A9F18091000190910101AF
:1001EE00892B79F580910401909105011816190655
:1001FE0044F561E971E080E00E94AF02CC2ED12C73
:10020E00E12CF12C8E2DB6010E94AF02F601E254C4
:10021E00F109E932F105A8F4EC5CFF4F0C94C70329
:10022E000E94E6020EC00E94FE020BC00E942E0328
:10023E0008C00E94160305C00E94460302C00E9419
:0E024E002A02CF91FF90EF90DF90CF9008959D
:10025C001F920F920FB60F9211248F939F93EF93CF
:10026C00FF9380910601882329F0109206011092C9
:10027C00B20020C093B1809108018695809308014B
:10028C0091FF05C0809108018068809308018091DE
:10029C0009018F5F8093090180910901883050F02A
:1002AC0010920A0181E080930701E0E7F0E0808181
:1002BC008D7F8083FF91EF919F918F910F900FBE57
:0602CC000F901F90189531
:1002D200DC01CB01880F991FAA1FBB1F880F991F32
:1002E200AA1FBB1F9C01AD01220F331F441F551FC4
:1002F200220F331F441F551F60E074E284EF90E029
:100302000E944D02BA01A9014150510961097109C6
:10031200BB27A72F962F852F8093C5004093C4003B
:0E03220088E18093C10086E08093C2000895B8
:100330001F920F920FB60F9211248F93EF93FF939A
:1003400080910A01811112C0199910C081E0809337
:100350000A0110920901109208018093060110927F
:10036000B200E0E7F0E0808182608083FF91EF914E
:0C0370008F910F900FBE0F901F901895FA
:10037C0081E090E02091020130910301232B11F0D8
:10038C0080E090E09093030180930201892B89F027
:10039C0080910401909105011816190654F480916E
:1003AC00000190910101892B21F48BB180688BB9EC
:0A03BC0008958BB18F778BB9089577
:1003C6001F920F920FB60F9211242F933F934F93C4
:1003D6005F936F937F938F939F93AF93BF93EF93A7
:1003E600FF930E94BE01FF91EF91BF91AF919F9144
:1003F6008F917F916F915F914F913F912F910F90C8
:080406000FBE0F901F90189526
:10040E0080910401909105018230910561F0833055
:10041E00910519F0019791F40CC088B18E7F88B9BF
:10042E008FEF87BD089588B1816088B98EE187BD51
:10043E00089588B1816088B917BC089588B18E7F00
:06044E0088B917BC0895F7
:1004540068E671E080E00E94AF0285B18F7D85B9C6
:1004640085B1806185B985B1846085B98BB18062BD
:100474008BB98BB18F7E8BB985B1886085B92FEF2D
:100484008BE49DE1215080409040E1F700C00000E2
:060494000E9446030895DA
:10049A00A1E21A2EAA1BBB1BFD010DC0AA1FBB1F7E
:1004AA00EE1FFF1FA217B307E407F50720F0A21BF0
:1004BA00B30BE40BF50B661F771F881F991F1A945D
:1004CA0069F760957095809590959B01AC01BD0187
:0404DA00CF010895B1
:1004DE0080910401909105010197909305018093FD
:1004EE0004010E94070281E090E090930101809345
:1004FE0000010E942A022FEF83E294EF21508040E8
:10050E009040E1F700C0000010920101109200012E
:02051E0008953E
:10052000F89460E875E280E090E00E94690164E779
:1005300071E080E00E94AF020E94CB026EE771E0A2
:1005400080E00E94AF020E9487030E945E030E9427
:0E055000C1030E94BA030E9407027894089526
:10055E00CF92DF92EF926B01E82E06C09FEFC91A81
:10056E00D90AE90A0E94B303F6018491E7FC80815F
:10057E008111F4CF8DE00E94B3038AE00E94B30391
:08058E00EF90DF90CF9008957B
:1005960084B18D7F84B985B1826085B9E8E6F0E0E3
:1005A600808181608083EBE6F0E0808182608083D9
:1005B60082E08093B0008093B10080ED8093B30019
:0605C60010927000089580
:1005CC0060E271E080E00E94AF0285B18F7D85B959
:1005DC0085B1806185B985B1846085B98BB18F7D1A
:1005EC008BB98BB180618BB985B1886085B9089561
:1005FC0060E371E080E00E94AF0285B1806285B952
:10060C0085B18F7E85B985B1846085B98BB18062E7
:10061C008BB98BB18F7E8BB985B1886085B9089504
:10062C006EE371E080E00E94AF0285B18F7D85B9E9
:10063C0085B1806185B985B1846085B98BB18F7DB9
:10064C008BB98BB18F7E8BB985B1877F85B90895B6
:10065C006EE471E080E00E94AF0285B18F7D85B9B8
:10066C0085B18F7E85B985B18B7F85B98BB18F7D37
:10067C008BB98BB180618BB985B1886085B90895D0
:10068C0060E671E080E00E94AF0285B18F7D85B994
:10069C0085B18F7E85B985B18B7F85B98BB18F7D07
:1006AC008BB98BB18F7E8BB985B1877F85B9089556
:1006BC0010928000E1E8F0E088E080838081856022
:1006CC00808388E09DE39093890080938800EFE617
:0A06DC00F0E08081826080830895C1
:1006E600ECE7F0E08081807F81608083EAE7F0E0DC
:1006F60080818064808380917A0086FDFCCF809122
:0807060078009091790008953C
:10070E008AB180688AB987B1816087B98AB18064FD
:10071E008AB984B18C6184B984B1806284B98AB19A
:06072E0080638AB9089502
:100734000E94D703882341F00E94CD038D3031F00D
:100744008A3029F480E0089580E0089580E00895D7
:1007540083E090E090930501809304010E940702D6
:020764000895F6
:0E0766009091C00095FFFCCF8093C6000895CF
:0E07740080E480937C0087E880937A000895EB
:0C07820083E884BD81E085BD17BC0895AC
:0C078E00EE0FFF1F0590F491E02D099480
:0A079A0010920701809108010895F4
:0A07A4000E9490020E94CF00FDCFDA
:0607AE008091070108958F
:0407B4000C940000A1
:0207B80003003C
:00000001FF
